{
  "_format": "hh-sol-artifact-1",
  "contractName": "SeedstarterPresale",
  "sourceName": "contracts/SeedstarterPresale.sol",
  "abi": [
    {
      "inputs": [
        {
          "internalType": "address",
          "name": "_token",
          "type": "address"
        },
        {
          "internalType": "address",
          "name": "_seller",
          "type": "address"
        }
      ],
      "stateMutability": "nonpayable",
      "type": "constructor"
    },
    {
      "inputs": [
        {
          "internalType": "address",
          "name": "owner",
          "type": "address"
        }
      ],
      "name": "OwnableInvalidOwner",
      "type": "error"
    },
    {
      "inputs": [
        {
          "internalType": "address",
          "name": "account",
          "type": "address"
        }
      ],
      "name": "OwnableUnauthorizedAccount",
      "type": "error"
    },
    {
      "anonymous": false,
      "inputs": [
        {
          "indexed": true,
          "internalType": "address",
          "name": "previousOwner",
          "type": "address"
        },
        {
          "indexed": true,
          "internalType": "address",
          "name": "newOwner",
          "type": "address"
        }
      ],
      "name": "OwnershipTransferred",
      "type": "event"
    },
    {
      "inputs": [
        {
          "internalType": "uint256",
          "name": "_bonus",
          "type": "uint256"
        },
        {
          "internalType": "uint256",
          "name": "_price",
          "type": "uint256"
        },
        {
          "internalType": "uint256",
          "name": "_start",
          "type": "uint256"
        },
        {
          "internalType": "uint256",
          "name": "_end",
          "type": "uint256"
        }
      ],
      "name": "addStage",
      "outputs": [],
      "stateMutability": "nonpayable",
      "type": "function"
    },
    {
      "inputs": [
        {
          "internalType": "uint256",
          "name": "_amount",
          "type": "uint256"
        }
      ],
      "name": "buyToken",
      "outputs": [],
      "stateMutability": "payable",
      "type": "function"
    },
    {
      "inputs": [],
      "name": "flipPresaleActive",
      "outputs": [],
      "stateMutability": "nonpayable",
      "type": "function"
    },
    {
      "inputs": [],
      "name": "getCurrentStageIdActive",
      "outputs": [
        {
          "internalType": "uint256",
          "name": "",
          "type": "uint256"
        }
      ],
      "stateMutability": "view",
      "type": "function"
    },
    {
      "inputs": [],
      "name": "hardCap",
      "outputs": [
        {
          "internalType": "uint256",
          "name": "",
          "type": "uint256"
        }
      ],
      "stateMutability": "view",
      "type": "function"
    },
    {
      "inputs": [],
      "name": "maxStage",
      "outputs": [
        {
          "internalType": "uint256",
          "name": "",
          "type": "uint256"
        }
      ],
      "stateMutability": "view",
      "type": "function"
    },
    {
      "inputs": [],
      "name": "maxTxAmount",
      "outputs": [
        {
          "internalType": "uint256",
          "name": "",
          "type": "uint256"
        }
      ],
      "stateMutability": "view",
      "type": "function"
    },
    {
      "inputs": [],
      "name": "maxWalletAmount",
      "outputs": [
        {
          "internalType": "uint256",
          "name": "",
          "type": "uint256"
        }
      ],
      "stateMutability": "view",
      "type": "function"
    },
    {
      "inputs": [],
      "name": "owner",
      "outputs": [
        {
          "internalType": "address",
          "name": "",
          "type": "address"
        }
      ],
      "stateMutability": "view",
      "type": "function"
    },
    {
      "inputs": [],
      "name": "presaleActive",
      "outputs": [
        {
          "internalType": "bool",
          "name": "",
          "type": "bool"
        }
      ],
      "stateMutability": "view",
      "type": "function"
    },
    {
      "inputs": [],
      "name": "presaleTokenAmount",
      "outputs": [
        {
          "internalType": "uint256",
          "name": "",
          "type": "uint256"
        }
      ],
      "stateMutability": "view",
      "type": "function"
    },
    {
      "inputs": [],
      "name": "renounceOwnership",
      "outputs": [],
      "stateMutability": "nonpayable",
      "type": "function"
    },
    {
      "inputs": [],
      "name": "sellerAddress",
      "outputs": [
        {
          "internalType": "address",
          "name": "",
          "type": "address"
        }
      ],
      "stateMutability": "view",
      "type": "function"
    },
    {
      "inputs": [
        {
          "internalType": "uint256",
          "name": "_hardCap",
          "type": "uint256"
        }
      ],
      "name": "setHardCap",
      "outputs": [],
      "stateMutability": "nonpayable",
      "type": "function"
    },
    {
      "inputs": [
        {
          "internalType": "uint256",
          "name": "_maxStage",
          "type": "uint256"
        }
      ],
      "name": "setMaxStage",
      "outputs": [],
      "stateMutability": "nonpayable",
      "type": "function"
    },
    {
      "inputs": [
        {
          "internalType": "uint256",
          "name": "_amount",
          "type": "uint256"
        }
      ],
      "name": "setMaxTxAmount",
      "outputs": [],
      "stateMutability": "nonpayable",
      "type": "function"
    },
    {
      "inputs": [
        {
          "internalType": "uint256",
          "name": "_amount",
          "type": "uint256"
        }
      ],
      "name": "setMaxWalletAmount",
      "outputs": [],
      "stateMutability": "nonpayable",
      "type": "function"
    },
    {
      "inputs": [],
      "name": "setPresaleTokenAmount",
      "outputs": [],
      "stateMutability": "nonpayable",
      "type": "function"
    },
    {
      "inputs": [
        {
          "internalType": "address",
          "name": "_seller",
          "type": "address"
        }
      ],
      "name": "setSellerAddress",
      "outputs": [],
      "stateMutability": "nonpayable",
      "type": "function"
    },
    {
      "inputs": [
        {
          "internalType": "uint256",
          "name": "_softCap",
          "type": "uint256"
        }
      ],
      "name": "setSoftCap",
      "outputs": [],
      "stateMutability": "nonpayable",
      "type": "function"
    },
    {
      "inputs": [
        {
          "internalType": "uint256",
          "name": "_id",
          "type": "uint256"
        },
        {
          "internalType": "uint256",
          "name": "_bonus",
          "type": "uint256"
        },
        {
          "internalType": "uint256",
          "name": "_price",
          "type": "uint256"
        },
        {
          "internalType": "uint256",
          "name": "_start",
          "type": "uint256"
        },
        {
          "internalType": "uint256",
          "name": "_end",
          "type": "uint256"
        }
      ],
      "name": "setStage",
      "outputs": [],
      "stateMutability": "nonpayable",
      "type": "function"
    },
    {
      "inputs": [
        {
          "internalType": "address",
          "name": "_token",
          "type": "address"
        }
      ],
      "name": "setToken",
      "outputs": [],
      "stateMutability": "nonpayable",
      "type": "function"
    },
    {
      "inputs": [],
      "name": "softCap",
      "outputs": [
        {
          "internalType": "uint256",
          "name": "",
          "type": "uint256"
        }
      ],
      "stateMutability": "view",
      "type": "function"
    },
    {
      "inputs": [
        {
          "internalType": "uint256",
          "name": "",
          "type": "uint256"
        }
      ],
      "name": "stages",
      "outputs": [
        {
          "internalType": "uint256",
          "name": "id",
          "type": "uint256"
        },
        {
          "internalType": "uint256",
          "name": "bonus",
          "type": "uint256"
        },
        {
          "internalType": "uint256",
          "name": "price",
          "type": "uint256"
        },
        {
          "internalType": "uint256",
          "name": "start",
          "type": "uint256"
        },
        {
          "internalType": "uint256",
          "name": "end",
          "type": "uint256"
        }
      ],
      "stateMutability": "view",
      "type": "function"
    },
    {
      "inputs": [],
      "name": "token",
      "outputs": [
        {
          "internalType": "contract ERC20",
          "name": "",
          "type": "address"
        }
      ],
      "stateMutability": "view",
      "type": "function"
    },
    {
      "inputs": [],
      "name": "totalFund",
      "outputs": [
        {
          "internalType": "uint256",
          "name": "",
          "type": "uint256"
        }
      ],
      "stateMutability": "view",
      "type": "function"
    },
    {
      "inputs": [],
      "name": "totalSold",
      "outputs": [
        {
          "internalType": "uint256",
          "name": "",
          "type": "uint256"
        }
      ],
      "stateMutability": "view",
      "type": "function"
    },
    {
      "inputs": [
        {
          "internalType": "address",
          "name": "newOwner",
          "type": "address"
        }
      ],
      "name": "transferOwnership",
      "outputs": [],
      "stateMutability": "nonpayable",
      "type": "function"
    },
    {
      "inputs": [],
      "name": "withdrawFunds",
      "outputs": [],
      "stateMutability": "nonpayable",
      "type": "function"
    }
  ],
  "bytecode": "0x60806040526001600460006101000a81548160ff021916908315150217905550678ac7230489e8000060055568022b1c8c1227a0000060065569d3c21bcecceda100000060075569d3c21bcecceda100000060085560006009556000600a556004600c556000600d553480156200007557600080fd5b5060405162002e2b38038062002e2b83398181016040528101906200009b9190620002db565b80600073ffffffffffffffffffffffffffffffffffffffff168173ffffffffffffffffffffffffffffffffffffffff1603620001115760006040517f1e4fbdf700000000000000000000000000000000000000000000000000000000815260040162000108919062000333565b60405180910390fd5b6200012281620001ad60201b60201c565b5081600160006101000a81548173ffffffffffffffffffffffffffffffffffffffff021916908373ffffffffffffffffffffffffffffffffffffffff16021790555080600260006101000a81548173ffffffffffffffffffffffffffffffffffffffff021916908373ffffffffffffffffffffffffffffffffffffffff160217905550505062000350565b60008060009054906101000a900473ffffffffffffffffffffffffffffffffffffffff169050816000806101000a81548173ffffffffffffffffffffffffffffffffffffffff021916908373ffffffffffffffffffffffffffffffffffffffff1602179055508173ffffffffffffffffffffffffffffffffffffffff168173ffffffffffffffffffffffffffffffffffffffff167f8be0079c531659141344cd1fd0a4f28419497f9722a3daafe3b4186f6b6457e060405160405180910390a35050565b600080fd5b600073ffffffffffffffffffffffffffffffffffffffff82169050919050565b6000620002a38262000276565b9050919050565b620002b58162000296565b8114620002c157600080fd5b50565b600081519050620002d581620002aa565b92915050565b60008060408385031215620002f557620002f462000271565b5b60006200030585828601620002c4565b92505060206200031885828601620002c4565b9150509250929050565b6200032d8162000296565b82525050565b60006020820190506200034a600083018462000322565b92915050565b612acb80620003606000396000f3fe6080604052600436106101c25760003560e01c80638c0b5e22116100f7578063b0335ffc11610095578063ec28438a11610064578063ec28438a146105a1578063f2fde38b146105ca578063fb86a404146105f3578063fc0c546a1461061e576101c2565b8063b0335ffc146104fb578063d18d944b14610524578063d5cf5c721461054d578063e08d411414610576576101c2565b80639106d7ba116100d15780639106d7ba14610453578063a12df12e1461047e578063aa4bde28146104a7578063ae101f31146104d2576101c2565b80638c0b5e22146103d25780638da5cb5b146103fd578063906a26e014610428576101c2565b806353135ca011610164578063802ced021161013e578063802ced0214610326578063845ddcb21461033d5780638b1903761461037e5780638b250eff146103a7576101c2565b806353135ca0146102cd578063715018a6146102f8578063773110491461030f576101c2565b806327a14fc2116101a057806327a14fc2146102325780632d296bf11461025b5780633d9b2ae6146102775780634571a7f1146102a2576101c2565b8063100aca47146101c7578063144fa6d7146101f257806324600fc31461021b575b600080fd5b3480156101d357600080fd5b506101dc610649565b6040516101e99190611985565b60405180910390f35b3480156101fe57600080fd5b5061021960048036038101906102149190611a03565b61064f565b005b34801561022757600080fd5b5061023061070a565b005b34801561023e57600080fd5b5061025960048036038101906102549190611a5c565b610818565b005b61027560048036038101906102709190611a5c565b61082a565b005b34801561028357600080fd5b5061028c610ff5565b6040516102999190611a98565b60405180910390f35b3480156102ae57600080fd5b506102b761101b565b6040516102c49190611985565b60405180910390f35b3480156102d957600080fd5b506102e2611021565b6040516102ef9190611ace565b60405180910390f35b34801561030457600080fd5b5061030d611034565b005b34801561031b57600080fd5b50610324611048565b005b34801561033257600080fd5b5061033b61107c565b005b34801561034957600080fd5b50610364600480360381019061035f9190611a5c565b61114c565b604051610375959493929190611ae9565b60405180910390f35b34801561038a57600080fd5b506103a560048036038101906103a09190611a5c565b611182565b005b3480156103b357600080fd5b506103bc611194565b6040516103c99190611985565b60405180910390f35b3480156103de57600080fd5b506103e761119a565b6040516103f49190611985565b60405180910390f35b34801561040957600080fd5b506104126111a0565b60405161041f9190611a98565b60405180910390f35b34801561043457600080fd5b5061043d6111c9565b60405161044a9190611985565b60405180910390f35b34801561045f57600080fd5b506104686111cf565b6040516104759190611985565b60405180910390f35b34801561048a57600080fd5b506104a560048036038101906104a09190611a03565b6111d5565b005b3480156104b357600080fd5b506104bc611221565b6040516104c99190611985565b60405180910390f35b3480156104de57600080fd5b506104f960048036038101906104f49190611b3c565b611227565b005b34801561050757600080fd5b50610522600480360381019061051d9190611ba3565b611404565b005b34801561053057600080fd5b5061054b60048036038101906105469190611a5c565b6115ac565b005b34801561055957600080fd5b50610574600480360381019061056f9190611a5c565b6115be565b005b34801561058257600080fd5b5061058b6115d0565b6040516105989190611985565b60405180910390f35b3480156105ad57600080fd5b506105c860048036038101906105c39190611a5c565b611669565b005b3480156105d657600080fd5b506105f160048036038101906105ec9190611a03565b61167b565b005b3480156105ff57600080fd5b50610608611701565b6040516106159190611985565b60405180910390f35b34801561062a57600080fd5b50610633611707565b6040516106409190611c7d565b60405180910390f35b600a5481565b61065761172d565b600073ffffffffffffffffffffffffffffffffffffffff168173ffffffffffffffffffffffffffffffffffffffff16036106c6576040517f08c379a00000000000000000000000000000000000000000000000000000000081526004016106bd90611cf5565b60405180910390fd5b80600160006101000a81548173ffffffffffffffffffffffffffffffffffffffff021916908373ffffffffffffffffffffffffffffffffffffffff16021790555050565b61071261172d565b476005541115610757576040517f08c379a000000000000000000000000000000000000000000000000000000000815260040161074e90611d61565b60405180910390fd5b476006541461079b576040517f08c379a000000000000000000000000000000000000000000000000000000000815260040161079290611dcd565b60405180910390fd5b3373ffffffffffffffffffffffffffffffffffffffff166108fc479081150290604051600060405180830381858888f1935050505061080f576040517f08c379a000000000000000000000000000000000000000000000000000000000815260040161080690611e39565b60405180910390fd5b47600a81905550565b61082061172d565b8060088190555050565b600460009054906101000a900460ff16610879576040517f08c379a000000000000000000000000000000000000000000000000000000000815260040161087090611ea5565b60405180910390fd5b6006544711156108be576040517f08c379a00000000000000000000000000000000000000000000000000000000081526004016108b590611f11565b60405180910390fd5b6000811015610902576040517f08c379a00000000000000000000000000000000000000000000000000000000081526004016108f990611f7d565b60405180910390fd5b600061090c6115d0565b905060008111610951576040517f08c379a000000000000000000000000000000000000000000000000000000000815260040161094890611fe9565b60405180910390fd5b6000600b60008381526020019081526020016000206001015490506000600b60008481526020019081526020016000206002015490506000600b60008581526020019081526020016000206003015490506000600b600086815260200190815260200160002060040154905042821115610a00576040517f08c379a00000000000000000000000000000000000000000000000000000000081526004016109f790612055565b60405180910390fd5b42811015610a43576040517f08c379a0000000000000000000000000000000000000000000000000000000008152600401610a3a906120c1565b60405180910390fd5b6000600160009054906101000a900473ffffffffffffffffffffffffffffffffffffffff1673ffffffffffffffffffffffffffffffffffffffff1663313ce5676040518163ffffffff1660e01b8152600401602060405180830381865afa158015610ab2573d6000803e3d6000fd5b505050506040513d601f19601f82011682018060405250810190610ad6919061211a565b600a610ae291906122a9565b87610aed9190612323565b9050610b2e6040518060400160405280601681526020017f5f616d6f756e74546f6b656e73203d2025642053445300000000000000000000815250826117b4565b610b786040518060400160405280601881526020017f726571756972656420616d6f756e74203d2025642077656900000000000000008152508583610b739190612354565b6117b4565b610bb76040518060400160405280601381526020017f6d73672e76616c7565203d202564207765692000000000000000000000000000815250346117b4565b8381610bc39190612354565b341015610c05576040517f08c379a0000000000000000000000000000000000000000000000000000000008152600401610bfc906123e2565b60405180910390fd5b610c446040518060400160405280600a81526020017f5f626f6e75732025642500000000000000000000000000000000000000000000815250866117b4565b600060648689610c549190612354565b610c5e9190612323565b905060008189610c6e9190612402565b9050610caf6040518060400160405280601581526020017f5f616d6f756e742020202020203d2025642053445300000000000000000000008152508a6117b4565b610cee6040518060400160405280601581526020017f5f626f6e7573416d6f756e74203d202564205344530000000000000000000000815250836117b4565b610d2d6040518060400160405280601681526020017f5f746f74616c416d6f756e74203d202564205344532000000000000000000000815250826117b4565b60035481600954610d3e9190612402565b1115610d7f576040517f08c379a0000000000000000000000000000000000000000000000000000000008152600401610d7690612482565b60405180910390fd5b600754811115610dc4576040517f08c379a0000000000000000000000000000000000000000000000000000000008152600401610dbb90612514565b60405180910390fd5b600854600160009054906101000a900473ffffffffffffffffffffffffffffffffffffffff1673ffffffffffffffffffffffffffffffffffffffff166370a08231336040518263ffffffff1660e01b8152600401610e229190611a98565b602060405180830381865afa158015610e3f573d6000803e3d6000fd5b505050506040513d601f19601f82011682018060405250810190610e639190612549565b82610e6e9190612402565b1115610eaf576040517f08c379a0000000000000000000000000000000000000000000000000000000008152600401610ea6906125e8565b60405180910390fd5b6000600160009054906101000a900473ffffffffffffffffffffffffffffffffffffffff1673ffffffffffffffffffffffffffffffffffffffff166323b872dd600260009054906101000a900473ffffffffffffffffffffffffffffffffffffffff1633856040518463ffffffff1660e01b8152600401610f3293929190612608565b6020604051808303816000875af1158015610f51573d6000803e3d6000fd5b505050506040513d601f19601f82011682018060405250810190610f75919061266b565b905080610fb7576040517f08c379a0000000000000000000000000000000000000000000000000000000008152600401610fae906126e4565b60405180910390fd5b8160096000828254610fc99190612402565b9250508190555034600a6000828254610fe29190612402565b9250508190555050505050505050505050565b600260009054906101000a900473ffffffffffffffffffffffffffffffffffffffff1681565b600c5481565b600460009054906101000a900460ff1681565b61103c61172d565b6110466000611850565b565b61105061172d565b600460009054906101000a900460ff1615600460006101000a81548160ff021916908315150217905550565b61108461172d565b600160009054906101000a900473ffffffffffffffffffffffffffffffffffffffff1673ffffffffffffffffffffffffffffffffffffffff1663dd62ed3e600260009054906101000a900473ffffffffffffffffffffffffffffffffffffffff16306040518363ffffffff1660e01b8152600401611103929190612704565b602060405180830381865afa158015611120573d6000803e3d6000fd5b505050506040513d601f19601f820116820180604052508101906111449190612549565b600381905550565b600b6020528060005260406000206000915090508060000154908060010154908060020154908060030154908060040154905085565b61118a61172d565b80600c8190555050565b60035481565b60075481565b60008060009054906101000a900473ffffffffffffffffffffffffffffffffffffffff16905090565b60055481565b60095481565b6111dd61172d565b80600260006101000a81548173ffffffffffffffffffffffffffffffffffffffff021916908373ffffffffffffffffffffffffffffffffffffffff16021790555050565b60085481565b61122f61172d565b60006001600d546112409190612402565b9050600c54811115611287576040517f08c379a000000000000000000000000000000000000000000000000000000000815260040161127e90612779565b60405180910390fd5b60648511156112cb576040517f08c379a00000000000000000000000000000000000000000000000000000000081526004016112c29061280b565b60405180910390fd5b6000831180156112db5750600082115b61131a576040517f08c379a000000000000000000000000000000000000000000000000000000000815260040161131190612877565b60405180910390fd5b81831061135c576040517f08c379a0000000000000000000000000000000000000000000000000000000008152600401611353906128e3565b60405180910390fd5b6001600d600082825461136f9190612402565b9250508190555080600b60008381526020019081526020016000206000018190555084600b60008381526020019081526020016000206001018190555083600b60008381526020019081526020016000206002018190555082600b60008381526020019081526020016000206003018190555081600b6000838152602001908152602001600020600401819055505050505050565b61140c61172d565b84600b60008781526020019081526020016000206000015414611464576040517f08c379a000000000000000000000000000000000000000000000000000000000815260040161145b9061294f565b60405180910390fd5b60648411156114a8576040517f08c379a000000000000000000000000000000000000000000000000000000000815260040161149f9061280b565b60405180910390fd5b6000821180156114b85750600081115b6114f7576040517f08c379a00000000000000000000000000000000000000000000000000000000081526004016114ee90612877565b60405180910390fd5b808210611539576040517f08c379a0000000000000000000000000000000000000000000000000000000008152600401611530906128e3565b60405180910390fd5b83600b60008781526020019081526020016000206001018190555082600b60008781526020019081526020016000206002018190555081600b60008781526020019081526020016000206003018190555080600b6000878152602001908152602001600020600401819055505050505050565b6115b461172d565b8060068190555050565b6115c661172d565b8060058190555050565b600080600090506000600d54036115ea5760009050611662565b6000600190505b600d54811161165257600b60008281526020019081526020016000206003015442101580156116365750600b6000828152602001908152602001600020600401544211155b1561163f578091505b808061164a9061296f565b9150506115f1565b506000810361166157600d5490505b5b8091505090565b61167161172d565b8060078190555050565b61168361172d565b600073ffffffffffffffffffffffffffffffffffffffff168173ffffffffffffffffffffffffffffffffffffffff16036116f55760006040517f1e4fbdf70000000000000000000000000000000000000000000000000000000081526004016116ec9190611a98565b60405180910390fd5b6116fe81611850565b50565b60065481565b600160009054906101000a900473ffffffffffffffffffffffffffffffffffffffff1681565b611735611914565b73ffffffffffffffffffffffffffffffffffffffff166117536111a0565b73ffffffffffffffffffffffffffffffffffffffff16146117b257611776611914565b6040517f118cdaa70000000000000000000000000000000000000000000000000000000081526004016117a99190611a98565b60405180910390fd5b565b61184c82826040516024016117ca929190612a36565b6040516020818303038152906040527fb60e72cc000000000000000000000000000000000000000000000000000000007bffffffffffffffffffffffffffffffffffffffffffffffffffffffff19166020820180517bffffffffffffffffffffffffffffffffffffffffffffffffffffffff838183161783525050505061191c565b5050565b60008060009054906101000a900473ffffffffffffffffffffffffffffffffffffffff169050816000806101000a81548173ffffffffffffffffffffffffffffffffffffffff021916908373ffffffffffffffffffffffffffffffffffffffff1602179055508173ffffffffffffffffffffffffffffffffffffffff168173ffffffffffffffffffffffffffffffffffffffff167f8be0079c531659141344cd1fd0a4f28419497f9722a3daafe3b4186f6b6457e060405160405180910390a35050565b600033905090565b6119338161192b611936611957565b63ffffffff16565b50565b60006a636f6e736f6c652e6c6f679050600080835160208501845afa505050565b611962819050919050565b61196a612a66565b565b6000819050919050565b61197f8161196c565b82525050565b600060208201905061199a6000830184611976565b92915050565b600080fd5b600073ffffffffffffffffffffffffffffffffffffffff82169050919050565b60006119d0826119a5565b9050919050565b6119e0816119c5565b81146119eb57600080fd5b50565b6000813590506119fd816119d7565b92915050565b600060208284031215611a1957611a186119a0565b5b6000611a27848285016119ee565b91505092915050565b611a398161196c565b8114611a4457600080fd5b50565b600081359050611a5681611a30565b92915050565b600060208284031215611a7257611a716119a0565b5b6000611a8084828501611a47565b91505092915050565b611a92816119c5565b82525050565b6000602082019050611aad6000830184611a89565b92915050565b60008115159050919050565b611ac881611ab3565b82525050565b6000602082019050611ae36000830184611abf565b92915050565b600060a082019050611afe6000830188611976565b611b0b6020830187611976565b611b186040830186611976565b611b256060830185611976565b611b326080830184611976565b9695505050505050565b60008060008060808587031215611b5657611b556119a0565b5b6000611b6487828801611a47565b9450506020611b7587828801611a47565b9350506040611b8687828801611a47565b9250506060611b9787828801611a47565b91505092959194509250565b600080600080600060a08688031215611bbf57611bbe6119a0565b5b6000611bcd88828901611a47565b9550506020611bde88828901611a47565b9450506040611bef88828901611a47565b9350506060611c0088828901611a47565b9250506080611c1188828901611a47565b9150509295509295909350565b6000819050919050565b6000611c43611c3e611c39846119a5565b611c1e565b6119a5565b9050919050565b6000611c5582611c28565b9050919050565b6000611c6782611c4a565b9050919050565b611c7781611c5c565b82525050565b6000602082019050611c926000830184611c6e565b92915050565b600082825260208201905092915050565b7f546f6b656e206973207a65726f20616464726573732100000000000000000000600082015250565b6000611cdf601683611c98565b9150611cea82611ca9565b602082019050919050565b60006020820190508181036000830152611d0e81611cd2565b9050919050565b7f536d616c6c6572207468616e20536f6674636170210000000000000000000000600082015250565b6000611d4b601583611c98565b9150611d5682611d15565b602082019050919050565b60006020820190508181036000830152611d7a81611d3e565b9050919050565b7f4e6f7420657175616c20746f2048617264636170210000000000000000000000600082015250565b6000611db7601583611c98565b9150611dc282611d81565b602082019050919050565b60006020820190508181036000830152611de681611daa565b9050919050565b7f4661696c65642077697468647261772100000000000000000000000000000000600082015250565b6000611e23601083611c98565b9150611e2e82611ded565b602082019050919050565b60006020820190508181036000830152611e5281611e16565b9050919050565b7f50726573616c65206973206e6f74206163746976652100000000000000000000600082015250565b6000611e8f601683611c98565b9150611e9a82611e59565b602082019050919050565b60006020820190508181036000830152611ebe81611e82565b9050919050565b7f48617264636170206c696d697420657863656564732100000000000000000000600082015250565b6000611efb601683611c98565b9150611f0682611ec5565b602082019050919050565b60006020820190508181036000830152611f2a81611eee565b9050919050565b7f506c6561736520656e746572206d696e696d756d20746f6b656e210000000000600082015250565b6000611f67601b83611c98565b9150611f7282611f31565b602082019050919050565b60006020820190508181036000830152611f9681611f5a565b9050919050565b7f537461676520696e666f206e6f7420617661696c61626c652100000000000000600082015250565b6000611fd3601983611c98565b9150611fde82611f9d565b602082019050919050565b6000602082019050818103600083015261200281611fc6565b9050919050565b7f50726573616c6520636f6d6d696e6720736f6f6e210000000000000000000000600082015250565b600061203f601583611c98565b915061204a82612009565b602082019050919050565b6000602082019050818103600083015261206e81612032565b9050919050565b7f50726573616c6520656e64210000000000000000000000000000000000000000600082015250565b60006120ab600c83611c98565b91506120b682612075565b602082019050919050565b600060208201905081810360008301526120da8161209e565b9050919050565b600060ff82169050919050565b6120f7816120e1565b811461210257600080fd5b50565b600081519050612114816120ee565b92915050565b6000602082840312156121305761212f6119a0565b5b600061213e84828501612105565b91505092915050565b7f4e487b7100000000000000000000000000000000000000000000000000000000600052601160045260246000fd5b60008160011c9050919050565b6000808291508390505b60018511156121cd578086048111156121a9576121a8612147565b5b60018516156121b85780820291505b80810290506121c685612176565b945061218d565b94509492505050565b6000826121e657600190506122a2565b816121f457600090506122a2565b816001811461220a576002811461221457612243565b60019150506122a2565b60ff84111561222657612225612147565b5b8360020a91508482111561223d5761223c612147565b5b506122a2565b5060208310610133831016604e8410600b84101617156122785782820a90508381111561227357612272612147565b5b6122a2565b6122858484846001612183565b9250905081840481111561229c5761229b612147565b5b81810290505b9392505050565b60006122b48261196c565b91506122bf836120e1565b92506122ec7fffffffffffffffffffffffffffffffffffffffffffffffffffffffffffffffff84846121d6565b905092915050565b7f4e487b7100000000000000000000000000000000000000000000000000000000600052601260045260246000fd5b600061232e8261196c565b91506123398361196c565b925082612349576123486122f4565b5b828204905092915050565b600061235f8261196c565b915061236a8361196c565b92508282026123788161196c565b9150828204841483151761238f5761238e612147565b5b5092915050565b7f4e6f7420656e6f756768207061796d656e742100000000000000000000000000600082015250565b60006123cc601383611c98565b91506123d782612396565b602082019050919050565b600060208201905081810360008301526123fb816123bf565b9050919050565b600061240d8261196c565b91506124188361196c565b92508282019050808211156124305761242f612147565b5b92915050565b7f50726573616c6520746f6b656e20616d6f756e74206578636565647321000000600082015250565b600061246c601d83611c98565b915061247782612436565b602082019050919050565b6000602082019050818103600083015261249b8161245f565b9050919050565b7f4d6178696d756d207472616e73616374696f6e206c696d69742065786363656460008201527f7321000000000000000000000000000000000000000000000000000000000000602082015250565b60006124fe602283611c98565b9150612509826124a2565b604082019050919050565b6000602082019050818103600083015261252d816124f1565b9050919050565b60008151905061254381611a30565b92915050565b60006020828403121561255f5761255e6119a0565b5b600061256d84828501612534565b91505092915050565b7f4d6178696d756d2077616c6c657420746f6b656e206c696d697420657863636560008201527f6473210000000000000000000000000000000000000000000000000000000000602082015250565b60006125d2602383611c98565b91506125dd82612576565b604082019050919050565b60006020820190508181036000830152612601816125c5565b9050919050565b600060608201905061261d6000830186611a89565b61262a6020830185611a89565b6126376040830184611976565b949350505050565b61264881611ab3565b811461265357600080fd5b50565b6000815190506126658161263f565b92915050565b600060208284031215612681576126806119a0565b5b600061268f84828501612656565b91505092915050565b7f4661696c656420746f207472616e7366657220746f6b656e2100000000000000600082015250565b60006126ce601983611c98565b91506126d982612698565b602082019050919050565b600060208201905081810360008301526126fd816126c1565b9050919050565b60006040820190506127196000830185611a89565b6127266020830184611a89565b9392505050565b7f4d6178696d756d20737461676520657863636564732100000000000000000000600082015250565b6000612763601683611c98565b915061276e8261272d565b602082019050919050565b6000602082019050818103600083015261279281612756565b9050919050565b7f426f6e75732073686f756c64206265206265747765656e203020616e6420313060008201527f3000000000000000000000000000000000000000000000000000000000000000602082015250565b60006127f5602183611c98565b915061280082612799565b604082019050919050565b60006020820190508181036000830152612824816127e8565b9050919050565b7f496e76616c696420646174652100000000000000000000000000000000000000600082015250565b6000612861600d83611c98565b915061286c8261282b565b602082019050919050565b6000602082019050818103600083015261289081612854565b9050919050565b7f456e64206461746520736d616c6c6572207468616e2073746172742100000000600082015250565b60006128cd601c83611c98565b91506128d882612897565b602082019050919050565b600060208201905081810360008301526128fc816128c0565b9050919050565b7f494420646f65736e277420657869737421000000000000000000000000000000600082015250565b6000612939601183611c98565b915061294482612903565b602082019050919050565b600060208201905081810360008301526129688161292c565b9050919050565b600061297a8261196c565b91507fffffffffffffffffffffffffffffffffffffffffffffffffffffffffffffffff82036129ac576129ab612147565b5b600182019050919050565b600081519050919050565b60005b838110156129e05780820151818401526020810190506129c5565b60008484015250505050565b6000601f19601f8301169050919050565b6000612a08826129b7565b612a128185611c98565b9350612a228185602086016129c2565b612a2b816129ec565b840191505092915050565b60006040820190508181036000830152612a5081856129fd565b9050612a5f6020830184611976565b9392505050565b7f4e487b7100000000000000000000000000000000000000000000000000000000600052605160045260246000fdfea26469706673582212201f0547aa9a4c070632aa1f69e706a224fc1e2288131fe8bb3f376b2c11d9c2e264736f6c63430008140033",
  "linkReferences": {},
  "deployedLinkReferences": {}
}